:020000040800F2
:10000000F0FF00103596050819D30408FDE7010834
:10001000D5960508D5960508D59605080000000078
:100020000000000000000000000000001DD30408D4
:1000300021D304080000000025D30408E1AA010828
:10004000D5960508D5960508D5960508D5960508D0
:10005000D5960508D596050885900108A990010850
:10006000E5900108219101085D91010835C0000863
:1000700049C000085DC0000871C0000885C00008C4
:1000800099C00008ADC00008D5960508D5960508AA
:10009000D5960508D5960508D596050899910108C5
:1000A00045E40108A5E3010855E4010895E30108CA
:1000B000CDE30108DDE30108EDE30108BDB7000869
:1000C00025BC0008C5B7000829BC0008D59605085E
:1000D000D596050869A401086DA5010871A6010857
:1000E000D5910108D59605080DDA040865E40108E4
:1000F0001DE4010875E401080DE40108C1C0000811
:10010000D5960508D5960508FDE30108D59605089E
:1001100075A7010879A80108D5960508D5960508A0
:10012000D5C00008E9C00008FDC0000811C10008E2
:1001300025C10008D5960508D5960508D596050869
:10014000D5960508D5960508D596050829D304083F
:1001500039C100084DC1000861C100087DA901082E
:10016000CDB700082DBC0008D5960508D596050822
:10017000D5960508D5960508D5960508D59605089F
:08018000D5960508D596050887
:0828000000C00F0800001008E1
:1080000082B01E4B002201920193019B1C4A043353
:108010000193019B1968936803F00C03042B06D0AD
:10802000082B08D0174B184A1A6002B07047154B3E
:10803000196002B070475368506813F4800F00F065
:108040003F00536812D1C3F388130F49B1FBF0F11D
:1080500001FB03F30A4A0B495268C2F301420132A1
:108060005200B3FBF2F30B6002B07047C3F3881306
:10807000B1FBF0F101FB03F3ECE700BF5028004037
:1080800000380240F80D00200024F400074BD0F81F
:10809000E4105B68D0F8F0205B1A9A42B8BFC0F8D1
:1080A000F030012380F81C3100207047001000E000
:1080B000B84B00EB800103EBC10170B54A68526810
:1080C000B2F814E01EF0010F4FEA800C6ED15FFA97
:1080D0008EF4A60742D5BFF35F8F91F82040012CA4
:1080E000E5B200F0D180118BBFF35F8F0CEB000184
:1080F00003EBC10191F82040022C00F0E7800CEB6B
:10810000000103EBC10191F82040032C07D191F845
:10811000221021B193F87D10002940F0E78091886A
:1081200089B241F48061918093F97C100CEB000ED0
:1081300003EBCE0E9EF820E00EF1010E8E450CD121
:10814000002183F87D1093F87E10002940F0B7805D
:10815000604403EBC00300225A7770BD65075DD40D
:1081600014F0400400F0CB80148A93F97C508E6A9E
:10817000E4B274555FFA85FE0EF1010464B291F821
:10818000206083F87C40E51CAE42214600F025814A
:108190000CEB000503EBC50595F82050AC42C5D1AA
:1081A0000EF1020149B283F87C10BFE7B2F800E09B
:1081B0002EF4006E4FEA0E4E4FEA1E4EA2F800E07B
:1081C0001488A4B244F48064148091F822400025FD
:1081D00083F87C50002C48D093F87D40002C41D08F
:1081E000012183F87D100CEB000103EBC10191F834
:1081F0002010022904D1118889B241F40061118054
:108200000CEB000103EBC101897F41F001011182F8
:10821000604403EBC00393F8203070BD91F8224016
:10822000012583F87E50002C70D093F87D40002CFF
:1082300071D10CEB000103EBC10191F82110002971
:1082400000F0AA80118889B241F40071118093F87E
:108250007C1001314CB283F87C401188CE05FCD4EF
:10826000214663E7C97FFF29BAD00CEB000103EB7D
:10827000C1018C7F04F0FE041482CA7FFF2AC7D09C
:10828000FF2283F87C20C3E791F8221000293FF4F5
:108290002AAF93F87D1000293FF425AF118821F40F
:1082A00080610904090C1180BFF35F8F118B118865
:1082B00083F87E5089B241F4007111802FE79188D4
:1082C00021F440710904090C918041E791F82210D2
:1082D00000293FF414AF93F87D1000293FF40FAF4D
:1082E000118821F480610904090C1180918821F41E
:1082F00080610904090C918093F97C1016E71FFA3C
:108300008EF52D062DD493F97C100FE793F87D1090
:1083100000298ED096E791F82040022C148846D987
:1083200024F480642404240C1480158A8E6A93F942
:108330007C40EDB235558E6A118889B241F40071E6
:108340001180E4B2158A611C49B2EDB2755491886E
:10835000023489B264B241F4806183F87C40918038
:108360007BE793F97C506E1C3ED04C6A665D1682AA
:108370006C1C91F8205064B2A54283F87C402146E1
:108380007FF4D4AE948824F480642404240C948074
:10839000CCE600BFF80D0020118893F97C4089B22B
:1083A00041F480711180012183F87D1055E7A4B25A
:1083B00044F400741480158A8E6A93F97C40EDB2FF
:1083C0003555E4B28E6A158A611C49B20334EDB2A8
:1083D00064B2755483F87C403FE7958825F4806546
:1083E0002D042D0C9580D3E683F87C40CC7F14823D
:1083F00091F8224024B991F8201000297FF408AFA9
:10840000918821F480610904090C918000E700BF84
:1084100030B5EAB18E464FEA014C034600F1C00583
:10842000002419689A6841EA0C0142EA0E029A6037
:10843000C3E900140C33AB42F3D1D0F8C030C0F81C
:10844000C44043EA0E03C0F8C030C0F8C84030BD95
:108450004FEA014E8C46E0E783691969B3F80CC016
:108460000A6830B49C6822F0010224680A60A2897C
:1084700092B222EA0C02A281027D04681F2A06D968
:108480006568203A08209040284245D0FEE72568DC
:10849000082090402842F9D1202000FA02F2A26080
:1084A000264A1278002A35D01A7E012A39D0D3F80C
:1084B000F4200132C3F8F420EFF31181502282F34B
:1084C000128858685C6C026822EA04029C6C2243A1
:1084D000C9B2026081F31188D3E90C401A69996826
:1084E0001D6C096814605061D3E90E4054609060BF
:1084F0000024B3F8A800D5604C62C862106801245B
:10850000204310601C7683F8F1408A899B891343CD
:108510009BB28B8130BC7047202000FA02F2E260EF
:10852000BEE7002283F8F120D3F8F8000A68013092
:1085300022F00102C3F8F8000A60EBE70400001023
:1085400010B40C4C6368002B11DD002004F1080C02
:108550000146DCF8A03003F1C00259600C339342AD
:10856000FBD16368013083420CF5807CF1DC5DF85F
:10857000044B704704000010F0B5494C04EB401C5C
:108580009CF8242402B9F0BD464B4FF08C0E0EFB34
:10859000003E93F8E06493F8E1249EF882708CF832
:1085A0000A7496424FF0000C4FEA40158EF882C0D4
:1085B0000ED002EB420C03EBCC0C57009CF8E4C449
:1085C0000CF1FF3EBEF1010F5CD9BCF1030F53D09B
:1085D0006019A0F80814EFF31182902383F3128836
:1085E00090F80A34B0F8081443EA41030021D2B2EB
:1085F0009BB280F80A1482F311881A09217882EA62
:1086000013225A40D9B1D0F82044D0F80C14D4F831
:10861000A040D2431B019BB202F00F020120884010
:10862000134304F1C0015A0013F4004F93B202D176
:108630006268024362600C348C42F4D1F0BDD0F821
:108640002014D0F80C04D1F8A0401B0100F1100157
:108650009BB202F00F0201208840134304F1C001D5
:108660005A0013F4004F93B202D162680243626071
:108670000C34A142F4D1F0BD02F1010C0CF0030C5A
:10868000B445A5D03A4403EBC202131893F8F11491
:1086900000299DD06319012283F80A2498E700BFBE
:1086A00004000010F80D0020704700BF024B03EBE0
:1086B000401090F825047047040000104368B0F89B
:1086C000502010B41A83EFF31182502383F31288E1
:1086D0004168446C0B6823EA0403C46C2343D2B2A0
:1086E0000B6082F31188D0E9074182680369126840
:1086F0001C605961D0E909415C60C46A9960B0F8B6
:108700006010DC600023D1625DF8044B0376704793
:108710004FF4006383817047012343770020704743
:10872000D0E90B2108B583690B4483610AB108467F
:108730009047002008BD00BF436A1B681B6A5B6846
:108740005B78024613F0010008BF5077704700BF06
:10875000C2628161704700BF704700BF043070473C
:108760000C4B93F84825D3F844150244D2B283F851
:10877000482593F8482508441206C3F8440505D552
:1087800093F8482582F0800283F84825024B0122A5
:108790001A707047F80D0020880100202DE9F0477D
:1087A000144FD7F84C55ED0A1ED00026B04607F2FC
:1087B0008459D7F850351048D3F828A0C7F87C85DD
:1087C000AC19641010234A46E102D0470F280BDD94
:1087D0000A4B03F1100C53F8041B013107D1634518
:1087E000F9D12546B542E4DCE802BDE8F087661C15
:1087F000F8E700BFF80D0020481300207C1300208C
:108800001C4BD3F89415D3F898258A1A322A16D817
:10881000D3F8AC258A4200D37047D3F8A02522B301
:108820001068928810B444693231224218BF4283E2
:108830005DF8044B08BF0283C3F8AC15704793F88A
:108840009C25D3F8A01502F0010219B132B90A68CB
:10885000898811830022C3F8AC2570470A6889888B
:1088600051830022C3F8AC2570473231C3F8AC15F0
:10887000704700BFF80D0020122301480B8070479D
:108880008C010020042301480B807047A0010020C8
:108890002048D0F8E837D0F8EC2730B59B184FF0D7
:1088A0001A040C8001D11C4830BD1B4AD0F8EA17CD
:1088B0004FF0000E10467546B3F1204F4FEA137C7F
:1088C0000CF130040EF1020E2ABF0CF1370C84704B
:1088D00080F802C0BEF1100FC5704FEA031300F11B
:1088E0000200E9D100200446B1F1204F4FEA117394
:1088F00003F1300C00F102002ABF373382F812C0B6
:1089000093740828D4744FEA011102F10202EBD1EA
:10891000014830BD00F0FF1FA4010020094A92F871
:108920009C35D2F8A02503F001031AB123B91368CE
:1089300092881A8300207047136892885A83002017
:10894000704700BFF80D00204FF40070034B10601B
:10895000D3F8B8350B600020704700BFF80D002039
:1089600000207047012070470120704700207047A9
:1089700000234FF6FF720121017243818381C3817D
:1089800002828274704700BF154BFF22F0B54FF092
:10899000000C4FF0FF3EC2700271027242724273CD
:1089A000827303F10C07764665466446624602EB25
:1089B000820281189F4284544D7081F802C0CE70AB
:1089C00081F804E00BD093F90620DC791D7A93F846
:1089D00009C093F90A6093F90BE00633E7E7F0BDAD
:1089E0002CB7050800230370437070474FF4F072F2
:1089F00002804FF4FA6240F22E4C0921028440F2C8
:108A000026220023A0F81EC081704FF47A7C0E212C
:108A100082830222A0F822C0437140F2012C8360BD
:108A2000C36080F82410427440F2034140F20562B2
:108A300043820723A0F814C0C18202838376704763
:108A40000023037043708370C3707047002303706A
:108A500043708370C3707047002306214FF47A720D
:108A6000C0E9012301700373704700BF10B50023F4
:108A7000411CFF2200F8132001F813200133082BBA
:108A8000F8D10B4B4FF0FF3103F10F0400228C465D
:108A900005E093F904C093F9051013F8032F00F8CB
:108AA00012C000EB420E9C428EF80110F1D110BDB5
:108AB00040B70508704700BF704700BFD0ED007A8F
:108AC000D0ED016A30EE677AE6EE877AB0EE670A9B
:108AD000C0ED007A704700BFD0ED017AD0ED026A98
:108AE00030EE677A90ED000AE6EE877A37EEC07ACC
:108AF000C0ED017AA6EE870A80ED000A704700BF3C
:108B000090ED017AD0ED036AD0ED027A30EE470A9B
:108B1000A6EE807A90ED000A80ED017A37EE676A62
:108B2000E6EE867A37EEC07AC0ED027AA6EE870AC4
:108B300080ED000A704700BFD0ED056AD0ED017AE4
:108B400090ED007A90ED066AD0ED025A90ED035A4E
:108B500080ED050A66EEA77AC0ED066AE7EE007AB8
:108B600090ED077AE5EE867A90ED086AD0ED045A2A
:108B700080ED087AE5EE477AE5EEC67AB0EE670A50
:108B8000C0ED077A704700BFD0ED057A90ED006A1E
:108B900090ED037AD0ED025AE6EE007AF0EE406AEC
:108BA000B0EE670A90ED016AD0ED047A27EE407AC4
:108BB00067EEC07AA6EE267AE5EEA67A90ED066A12
:108BC000C0ED067A36EE077A80ED057A704700BF71
:108BD0002DE9F047089F3C46054614F8010BB3F118
:108BE00000090E4608BF4FF0200938B3002A2BDDDC
:108BF000234600E0B2B113F8011B9046013A002968
:108C0000F8D1A8F102086AB1C24649462846B047E1
:108C10005246002A0AF1FF3AF7DC387828EAE8726F
:108C2000013240B1D71B01462846B047E21914F87B
:108C3000010B0028F7D11046BDE8F087002A02F1A9
:108C4000FF38E1DC0246F6E70022EBE703685A1C36
:108C500002601970704700BF024BD3F8E805036843
:108C60001B681847F80D0020164BD0F8E0105A6822
:108C700010B50446D0F8D80071B1131A99420BDC34
:108C800094F8D030C4F8D820012B10D0D4F8D430C8
:108C90000133C4F8D43010BDD4F8E430C4F8D8207F
:108CA0000344C4F8DC3094F8D030012BEED104F149
:108CB000E801201D0FF0FAFED4F8D4300133C4F8D7
:108CC000D43010BD001000E070B5214B214C94B0A1
:108CD000CDE90043022302931F4B04930546231D55
:108CE000012205930023CDE90632CDE90E33CDE90B
:108CF00010330B9313932B7F406A8DF80C20002BBD
:108D000014BF052304230C93144B0993A4F1080307
:108D10000A930E468DF820208DF834208DF84820D7
:108D20000FF016FE2B7F8BB1330E04F8073C063C88
:108D3000320C330A22706370A670686A69460FF0BD
:108D4000B5FE686A0FF004FE14B070BD073CEFE793
:108D5000E4130020C80100203987000819870008A3
:108D600010B5044694B050220649684652F028FCDB
:108D7000606A69460FF09AFE606A0FF0E9FD14B070
:108D800010BD00BF54B705082DE9F0410446406A04
:108D90001E460F4690460FF0DBFD237F002B40D090
:108DA0002A4DA0690523C5F88030030E85F84930A7
:108DB00005F14A039870020C000A58701A703B685B
:108DC000C5F88C300020D8F80030C5F89430012E5A
:108DD0002363C5F8A4002CD0022E20D1D8F804209B
:108DE000C5F89C00796885F89800C5F8A010134470
:108DF0001749C5F8A8200120236385F8AC00C5F801
:108E0000B010144B617F606A03F11402002914BF93
:108E1000194611460FF04AFEE36A93B1206BBDE894
:108E2000F0810A4DA0690423C5F8803005F149039B
:108E3000C0E7074B85F89860C5E92730C5F8A8005A
:108E4000DFE7606A0FF084FDE8E700BF88010020DB
:108E500021870008D801002000B583B0816101920C
:108E6000049A0093C26201236A4601A9FFF78CFFAE
:108E700003B05DF804FB00BFF0B5836993F8DC2014
:108E8000012A8BB005462ED0023A012A36D893F833
:108E90004C21D3F89C101E4C62F07F030B70866946
:108EA000D6F8A0305F1C0FCCEC46ACE80F00D6F82B
:108EB0009C30CDE900370FCCACE80F0094E80300FC
:108EC0008CE80300694606F110000FF0EFFDAB6976
:108ED0001A69516A03F1100099B1884200D0FEE787
:108EE000116A0029FCD1D3F8A0305A8852BAEA811D
:108EF0009A8852BA2A82DB885BBA6B8201200BB057
:108F0000F0BD116A0029EED0116A0029F9D1EAE713
:108F1000A4B705082DE9F04190F8DC30D0F8A06046
:108F2000012B8AB0044653D016D8D0F89C304FF0AD
:108F3000FF321A605A609A60DA60D0F8E030052299
:108F4000B3F57A7FC0F8F02064D8032380F8DC30D2
:108F500001200AB0BDE8F081023B012BF8D890F85F
:108F60004D31D0F89C20424D63F07F031370D0F850
:108F7000A03000F110085F1C0FCDEC46ACE80F00EC
:108F8000D4F89C30CDE900370FCDACE80F0095E860
:108F900003008CE80300694640460FF087FD236913
:108FA0005A6A12B190452ED0FEE71A6A002AFCD107
:108FB00073885BBAA4F8D030B3885BBAA4F8D23017
:108FC000F38801205BBAA4F8D4300AB0BDE8F08180
:108FD00090F84C2190F84D319B1A5B100133DBB2B5
:108FE00006EB430236F813305BBAA0F8D030538852
:108FF0005BBAA0F8D23093885BBAA0F8D4300120D5
:109000000AB0BDE8F0811A6A002AD1D01A6A002A93
:10901000F9D1CDE703691A7B2AB35B691BB390F8DA
:10902000983003B390F84C31D0F89C20C4F8A400D9
:1090300063F07F03137090F84C1190F84D31D0F825
:10904000A0200C48C4F804015B1A07330121C4F8BE
:10905000FC30D4F89C3084F800110A44C4E93D3255
:1090600084F8DC1074E7022384F8DC3070E700BF7A
:10907000A4B705088D800008114B002130B50160B0
:10908000818003F10C054FF448748E460A4602EBCA
:10909000420200EB420C00F812E08CF80110DA7882
:1090A0008CF80220AB42ACF8044007D093F90620BC
:1090B00093F807E0197A5C890633E8E730BD00BF12
:1090C000CCB7050800B589B000220DF1100C049250
:1090D000ADF8142003469CE803004FF40070ADF88F
:1090E0001C101880BDF81C0098814FF4807E01464A
:1090F00040F201205A80A3F806E09A60D8811A82D3
:10910000A3F814E0C3F81620598309B05DF804FBF6
:109110002DE9F043044695B0406A334D0E46914622
:1091200098460FF015FC314B0193314B049305F138
:10913000D0030093217F0223029305F1C80201238B
:1091400000278DF80C3005920697002935D08DF850
:1091500034308DF84830CDE90977330ECDE90E77FC
:10916000CDE9107785F8C9300523CDF82C908DF81E
:109170002070CDF830801397CA350793330C1D4FFC
:109180002B70330A6B70AE70D7F8F405656A0FF078
:10919000EDFB637FA8802BBB05A928460FF086FC5A
:1091A000606A0FF0D5FBD7F8F8050FF0DFFB636AB4
:1091B0009880404615B0BDE8F0838DF834308DF8C6
:1091C00048300423CDE90911CDE90E11CDE9101184
:1091D000CDF82C908DF82010CDF830801391C93542
:1091E0000793CBE76946D8E788010020E813002001
:1091F00039870008F80D0020F8B5774C04EB00160D
:10920000D6F8FC35002B00F094800546070196F84F
:1092100004064DF0F9FD96F80436590903F01F02D3
:1092200003294FF0010303FA02F300F098800429A8
:1092300000F0858002297DD0E319013593F80006FE
:1092400010F0FEFDEDB2064610B112238371C57118
:10925000E31993F8010610F0F3FD10B11323C57163
:109260008371E31993F8020610F0EAFD10B114239C
:10927000C57183713C444A2194F8032630460FF0AF
:109280008BF994F8010610F0DBFD94F803262A21EF
:109290000FF082F994F8020610F0D2FD94F803263C
:1092A0000A210FF079F9D4F8FC254C4B9A425BD097
:1092B0004B4B9A4248D04B4B9A4260D04A4B9A4211
:1092C00068D04A4B9A4270D0494B9A4278D049496B
:1092D0009088B1F8D640B1F8D430B1F8DE502343CD
:1092E000B1F8D8402343B1F8DA4020F0030023431B
:1092F000B1F8DC400004000C2343B1F8E04090805A
:109300002B4310882343B1F8E240B1F8E41000F495
:109310004150234303439BB21380938B23F4006398
:109320001B041B0C9383118213889BB243F04003F0
:109330001380F8BD304A516A0B4353627CE72E4AD2
:1093400011690B43136177E703F50033196A41F4A0
:1093500080411962196A21F480411962B7E7264AEF
:10936000116A0B43136267E703F58433596A41F4CA
:1093700080515962596A21F480515962A7E703F577
:10938000FE33196A41F400411962196A21F400415F
:1093900019629CE703F58233596A41F4005159621E
:1093A000596A21F40051596291E703F56843596AFB
:1093B00041F480115962596A21F48011596286E79B
:1093C00003F56443596A41F400115962596A21F462
:1093D000001159627BE700BFF80D0020003001400A
:1093E00000380040003C0040003401400050014083
:1093F00000540140880100200038024030B50120AF
:1094000085B043F0C5FD7C4A936823F00303936065
:10941000936813F00C0FFBD113687749002857D1DC
:1094200043F00103136041F288330A68950772D450
:10943000013BFAD1714C724D6F4B724AEA60724A2D
:10944000596FAA60596B714821F080015963596FB7
:1094500041F080715967196B41F4CE0119635A6B61
:109460005A639A6B9A631A6C02431A64596C684A7D
:109470000A435A64684643F025FC009B6549664AE6
:10948000A1FB03139B0CC4F84436D5F8FC3043F021
:109490008073C5F8FC300021604BC2F8B03F5160CA
:1094A000136843F00103136023685D4AA2FB0323A2
:1094B0009B09013BB3F1807F08D24FF0E022F020FE
:1094C0005361072385F823009161136105B030BD16
:1094D00043F4803313600A68940341F2883304D460
:1094E000013BA7D00A689403FAD5444C4D4A4E4B31
:1094F000B0FBF3F3B0FBF2F0B3EB400F18BF18462C
:109500004FF48002B3FBF0F3C4F84026C4F82C06F5
:10951000C4F8303609E0394C002108220223C4F88F
:109520004016C4F82C26C4F83036022043F030FD33
:1095300003280FD83D4BD4F8301603EBC0008588C4
:10954000C2884388C4F83856B3FBF1F3C4F83C260C
:10955000C4F83436284B36491A6C42F080521A64EB
:109560000A6842F440420A609A689A609A6842F433
:1095700000429A609A6842F4A0529A60D4F8400679
:10958000D4F82C26D4F83416024342EA8112D4F8D7
:109590003816D4F83C06490842EA0062013942EA2A
:1095A00001425A601A6842F080721A601A68920189
:1095B000FCD5204A40F205711160996821F0030141
:1095C0009960996841F00201A2F580629960936800
:1095D00003F00C03082BFAD1D4F830061649D8232F
:1095E000B3FBF0F39B0143F000530120C2F8843039
:1095F0008866FEF705FD1EE700380240F80D0020E2
:1096000000ED00E00005FA0500000020FFC9FE366D
:10961000335F070083DE1B43001000E055CEACC56E
:10962000D34D621080841E0040420F00E0B7050851
:1096300000700040003C0240000047422DE9F0412C
:1096400011F09AFA1F4F204E05464FF000087C6833
:10965000002C2ADD00231A4607EB0321013391F881
:10966000F9109C4242EA0102F6D142EA0804E4B24F
:1096700090467368C3F30803A3B9EFF311838BB962
:1096800013F098FC431BB3F5FA6F02DCB8F1000F3E
:10969000DDD124B10D4B93F848264F2A09D020463E
:1096A000BDE8F08111F03AFAECE744464FF00008CB
:1096B000DFE7B3F850260132A3F850262046BDE874
:1096C000F08100BF0400001000ED00E0F80D002064
:1096D000BC4B1B780BB9012070472DE9F04FBA4DF8
:1096E000BA49D5F89425BA4BA1FB02125209A3FB43
:1096F000023A4FEADA0A0AEB8A0AA2EB4A0A85B072
:10970000B04A5FFA8AF3039302F5FD6302F5A1679D
:109710000193002307EB8A0A02F581699846A94B59
:10972000D3F8F038434540F31781D9F81830D9F809
:109730000460D3E93A34029311F01EFA029B95F8C3
:1097400048C602904FEA860E95F854060EF1085E60
:1097500004F180610EEB431E3939BCF14F0F0EEB63
:1097600081110EEB801301D1A5F85206994240F207
:109770006A811A68002A00F05E811A6C002A00F0E3
:109780007081D3F88020002A00F06D81D3F8C020CA
:1097900003F58073002AE9D1A3EB0E0E99424FEA3C
:1097A000AE1E40F25081A4EB0E0145294FF000049B
:1097B00028BF452103EB81119B46204626460DE03C
:1097C0001A6C002A40F0D080D3F88020002A40F0A4
:1097D000F680D3F8C02003F580732AB9994206D9E0
:1097E0001A68002AECD04033994200F2C180112E51
:1097F000344640F22C81D6F1150200F128817549DA
:10980000029ED1F8E8309E45D5F8583638BFC1F8E9
:10981000E8E0F11A002919DB03F5F42303F590734E
:109820009E4288BF029B6B4988BF0533C5F85836F6
:10983000684BD3F8E830052B86BF053BDBB200232D
:1098400085F854364FF0FF33C1F8E83042B100FAE2
:1098500002F2C4F11404012000FA04F444EA020004
:109860005D4BC0F3C43203EB8202D2F8D41000F097
:109870001F0203EB8202D2F8D42042EA0131C0F386
:10988000441203EB8202C0F3842003EB8000D2F881
:10989000D43041EA0311D0F8D43041EA032181EAFF
:1098A000112383EA131303F00F030F2B40F0B18051
:1098B000B1F5803F80F0AD80BCF14F0F4FEA111140
:1098C00004D1B5F84C360133A5F84C363D4AD2F8F0
:1098D000F037B1F5606F03F10103C2F8F03700F023
:1098E000D480019B998197F858300398834210D017
:1098F000DAF808203B689B1A3B60DAF830207B6876
:109900009B1A7B600023CAF80830CAF8303087F809
:1099100058003B6801333B60DAF808300133CAF87D
:1099200008304FF6FF73994207D17B6801337B60A3
:10993000DAF830300133CAF83030019B08F1010801
:109940001433B8F1080F07F15C070AF15C0A0193C0
:1099500009F120097FF4E3AE1A4A0123012082F8BD
:10996000EE3805B0BDE8F08F803399427FF63FAF07
:109970005A469A1A9211541C184A82FB04B2A2EB5E
:10998000E472012AB8BF0122904001241644013A32
:1099900004FA02F210431C4622680AB3226C002A21
:1099A00063D0D4F88020002A61D0D4F8C02004F518
:1099B0008074B2B1A142EFD89B4623460EE7C03374
:1099C00012E700BF04000010F80D00201F85EB51C6
:1099D000CDCCCCCC880100202CB705085655555568
:1099E0004034A142E8D9E31A9B115A1C2F4B83FB48
:1099F00002B3A3EBE273012BB8BF012398401E44CE
:109A00000122013B02FA03F3184323469B462346F7
:109A1000E4E6BCF14F0F2CD0254AD2F8F0370133E1
:109A2000C2F8F037224AD2F8EC370133C2F8EC37EB
:109A30004FF6FF7157E74033A3EB0E0E99424FEA02
:109A4000AE1E3FF6B0AE10B1013885F85406BCF139
:109A50004F0F7FF472AFB5F84E360133A5F84E368E
:109A60006BE7803398E6C03396E68034B9E7C034BC
:109A7000B7E7B5F84C360E4A0133A5F84C36D2F8A4
:109A8000F0370133C2F8F037CCE795F8E13403EB57
:109A9000430305EBC303434493F8F1340D2B7FF4E8
:109AA00020AF019A802393771DE700BF5655555587
:109AB0000400001010B5044650F0C2FA81B22046EE
:109AC000BDE81040FEF758BD2DE9F0411E4B93F85C
:109AD000E02493F8E1349A422FD11C4F7D68002D89
:109AE00012DD3846002410F8086BA046013416B188
:109AF000037E012B1CD002691368AC4243F00103C2
:109B000000F580701360F1D111F036F8D7F8F44801
:109B1000002C0BDD0E4A02EBC4041168938888897F
:109B2000083203439BB294428B81F6D1BDE8F081A9
:109B300080F8F080FEF7C2FDDDE74DF0CDF800289B
:109B4000CBD1BDE8F08100BFF80D0020040000106B
:109B5000FC08001010B57D4C94F8E02494F8E13432
:109B60009A4240F099817A4B93F81829002A00F024
:109B7000EC8093F81C39002B40F0EC80D4F85C1694
:109B8000088820F080000004000C0880B4F860060B
:109B9000C862088880B240F0800008804B62B1F84B
:109BA0000CC0B4F8700640EA0C0080B2012A88812B
:109BB000A4F8703600F0C980D4F87416088820F034
:109BC00080000004000C0880B4F87806C862088899
:109BD00080B240F0800008804B62B1F80CC0B4F84D
:109BE000880640EA0C0080B2022A8881A4F88836F0
:109BF00000F0AB80D4F88C16088820F080000004B8
:109C0000000C0880B4F89006C862088880B240F062
:109C1000800008804B62B1F80CC0B4F8A00640EA9E
:109C20000C0080B2032A8881A4F8A03600F08D8051
:109C3000D4F8A416088820F080000004000C0880E6
:109C4000B4F8A806C862088880B240F08000088096
:109C50004B62B1F80CC0B4F8B80640EA0C0080B210
:109C6000042A8881A4F8B8366FD0D4F8BC160888C6
:109C700020F080000004000C0880B4F8C006C86220
:109C8000088880B240F0800008804B62B1F80CC0B8
:109C9000B4F8D00640EA0C0080B2052A8881A4F806
:109CA000D03652D0D4F8D416088820F080000004B2
:109CB000000C0880B4F8D806C862088880B240F06A
:109CC000800008804B62B1F80CC0B4F8E80640EAA6
:109CD0000C0080B2062A8881A4F8E83635D0D4F882
:109CE000EC16088820F080000004000C0880B4F80E
:109CF000F006C862088880B240F0800008804B629D
:109D0000B1F80CC0B4F8000740EA0C0080B2072A92
:109D10008881A4F8003718D0D4F80427B4F80807CD
:109D2000118821F080010904090C1180D06210888B
:109D3000B4F8181780B240F0800010805362908908
:109D4000014389B29181A4F8183710BDF80D0020A5
:109D500004000010D4F86436B4F868165960196825
:109D6000D4F85C0641F00101196040F20D33A0F80F
:109D70004830818989B241F48071012A8181E4D01F
:109D8000D4F87C16B4F880064860086840F00100FA
:109D90000860D4F87406A0F84830818989B241F48B
:109DA0008071022A8181D0D0D4F89416B4F8980634
:109DB0004860086840F001000860D4F88C06A0F8FC
:109DC0004830818989B241F48071032A8181BCD0F5
:109DD000D4F8AC16B4F8B0064860086840F001004A
:109DE0000860D4F8A406A0F84830818989B241F40B
:109DF0008071042A8181A8D0D4F8C416B4F8C806AA
:109E00004860086840F001000860D4F8BC06A0F87B
:109E10004830818989B241F48071052A818194D0CA
:109E2000D4F8DC16B4F8E0064860086840F0010099
:109E30000860D4F8D406A0F84830818989B241F48A
:109E40008071062A818180D0D4F8F416B4F8F8061F
:109E50004860086840F001000860D4F8EC06A0F8FB
:109E60004830818989B241F48071072A81813FF4A9
:109E70006CAFD4F80C17B4F810274A600868D4F80F
:109E8000042740F001000860A2F8483093899BB293
:109E900043F48073938110BD4CF01EFF00287FF4C3
:109EA00062AE10BD70B5104ED6F8F038002B19DD3B
:109EB00006F58164002505E0D6F8F038AB4204F1E0
:109EC00020040FDD237F0135002BF5D0E06800284A
:109ED000F2D0217D0FF040FBD6F8F038AB4204F110
:109EE0002004EFDC012070BD04000010F8B5037DF4
:109EF00085691F2B04464DD90168A3F120024E68E5
:109F000020209040064234D010239340C860CB609C
:109F10004B68D340DE0700F18380EFF311835022BA
:109F200082F312882A6C1168C9075AD4516889B221
:109F300071B9D5E90960864250D0AF690744D7604E
:109F400073D9301A80B25060AE62002185F8641077
:109F5000116841F00101DBB2116083F3118895F8BB
:109F60006430002B44D1237D1F2B27D92168A3F116
:109F700020024C6808209040044200D0C8604C6821
:109F8000042000FA02F2224203D0203B00FA03F33D
:109F9000CB60F8BD0268202016689840064219463A
:109FA0000ED010219940906091601168D940C80787
:109FB000B3D5012101FA03F39360AEE72268194695
:109FC000106808238B40184200D093601068042367
:109FD00003FA01F10142DCD09160F8BD012285F85D
:109FE0006420DBB283F3118895F86430002BBAD07B
:109FF00095F87C30002BB6D195F871000FF020FF5A
:10A000002A6E938923F008031B0401211B0C938102
:10A0100085F87C100028A6D020210FF09DFAA2E739
:10A02000012303FA02F2CA6077E72E69301A80B280
:10A030005060A96289E700BF2DE9F047037D0268FF
:10A040001F2B044608D95068A3F120052021A94000
:10A05000014206D1BDE8F0871068202199400142F5
:10A06000F8D0BB49BB4E4968C6F8201996F81C19B0
:10A07000D4F81890DFF8E482F1B98C2101FB098152
:10A08000D1F88800D1F8007105683868B1F88CC043
:10A0900020F001003860A98989B221EA0C01A98168
:10A0A0003178E9B91F2B40F2B580A3F120012023BC
:10A0B0008B40D360BDE8F0878C2101FB0981D1F88A
:10A0C000881048690D68016821F001010160A989C3
:10A0D00021F480710904090CA98131780029E1D0AB
:10A0E0004FF08C0A0AFB098ADAF80071384642F010
:10A0F00037FED6F8283901228AF8D420002B00F048
:10A10000F5802A888C2303FB098392B242F08002F7
:10A110002A80B3F8F4204FF0FF31E962002A7FD1A2
:10A120002A8CB3F8F610B3F8F800B3F8FCC022F0AC
:10A1300001021204120C2A84B3F8FA202B8B23F0AC
:10A14000F3031B0440EA0C101B0C0343288C9BB246
:10A150002B8383B223F00A030B4343F001032B84C8
:10A160002B8B23F00C031B041B0C2B832B8B9BB220
:10A170001A432A838C2303FB09830022D3F8AC0003
:10A18000C3F8A420D3F8982039680243D3F8B0006C
:10A190000243D3F8B4000243D3F8B8000243D3F823
:10A1A000BC000243D3F8C0000243D3F8CC00024302
:10A1B000D3F8D00002436848084002433A60D3E92C
:10A1C00031207969024321F007010A437A61D3F80B
:10A1D000A8207A60D3F89C20BA60D3F8A020FA6057
:10A1E000D3F8002116215160116841F0010111607E
:10A1F000D3F88820B3F88C30126891890B439BB256
:10A20000534993814B68C6F82439237D22681F2B5C
:10A210003FF64BAF202101FA03F39360BDE8F087CE
:10A22000042A33D0082A2A8C65D022F48052B3F84D
:10A23000FC10B3F8F800B3F8F6C01204120C2A842C
:10A24000090341EA0020A98BB5F820E0B3F8FA2011
:10A2500045F6FF7303EA0E0343EA0C3340F6FF4C66
:10A260000CEA01019BB2014343F4805389B2A983F4
:10A270002B84AB8B23F440631B041B0CAB83AB8B95
:10A280009BB243EA02239BB2AB8373E7298CB3F8FA
:10A29000F820B3F8FC00B3F8F6C021F0100109046F
:10A2A000090C29841202B3F8FA1042EA0032288B12
:10A2B0002B8C9BB223F0A00343EA0C1340F6FF4C17
:10A2C0000CEA00009BB2024343F0100392B22A83CF
:10A2D0002B842B8B23F440631B041B0C2B832B8BB5
:10A2E0009BB243EA01239BB22B8343E710F044FC6B
:10A2F000C6F8280905E722F480721204120CB3F89C
:10A30000F600B3F8F810B3F8FCC02A84B3F8FA20CA
:10A31000AB8B23F0F3031B0441EA0C111B0C0B4322
:10A3200099B22B8CA9839BB223F4206343EA0023C8
:10A330009BB243F480732B84AB8B23F00C031B0480
:10A340001B0CAB83AB8B9BB21A43AA8312E700BFF3
:10A35000001000E0040000103F801CF0F80D002009
:10A360002DE9F04FDFF80CB19BF8004087B024B91D
:10A370000124204607B0BDE8F08F3B4ED6F8945537
:10A3800010F0FAFB9BF860390390002B00F0DE829E
:10A39000364AA2FB0532364B5209A3FB0213DB08F7
:10A3A00003EB8303A2EB4303DAB204920BF5A16241
:10A3B00002EB830300930BF5FD63019206F1E004C9
:10A3C00002930027DBF82839039AD31A04D454F8EF
:10A3D000082C9342C0F26A82234A54F858AC256A8A
:10A3E000DAF800608C2303FB072393F8D430002BAA
:10A3F00040F09681284642F0B3FC1B4A8C2303FBB5
:10A400000723002283F8D4209AF805100C2914D8C9
:10A41000DFE811F07801130013001300710113003D
:10A42000130013007F011300130013000D00B38B02
:10A4300023F400631B041B0CB3832246304614F044
:10A44000ADF89AF805300C2B1ED8DFE813F04B015D
:10A450001D001D001D0042011D001D001D003901D1
:10A460001D001D001D001500F80D00201F85EB517B
:10A47000CDCCCCCC04000010B38B23F400631B04C0
:10A480001B0C43F40063B383019B54F8342C54F841
:10A49000101C5C330193009B5C330093029B1433CC
:10A4A000029354F8483C43F04003134354F8302CD3
:10A4B000134354F82C2C134354F8282C134354F80A
:10A4C000242C134354F8202C1343402244F83C2CF2
:10A4D00054F8142C13432A6822F07E6222F45F326F
:10A4E00022F470720B4313432B6054E907316A69FD
:10A4F0000B4322F0070213436B6154F8383C6B6046
:10A5000054F8443CAB6054F8403CEB602B6843F09B
:10A5100010032B609BF8603901379F4204F18C04D3
:10A52000FFF650AF012200218BF8EE28CBF8281956
:10A53000002B3FF41DAF9D4890F89010890700F163
:10A54000A081D0F88810086849798A40018C92B2BD
:10A5500089B221EA02010184018C89B20A43012BEC
:10A5600002843FF405AF914991F81C21970700F14F
:10A57000A281D1F8142110685479018C012289B28A
:10A58000A24092B221EA02010184018C89B20A43FD
:10A59000022B02843FF4ECAE844991F8A82196077F
:10A5A00000F1A281D1F8A02110685479018C012218
:10A5B00089B2A24092B221EA02010184018C89B2DF
:10A5C0000A43032B02843FF4D3AE784991F8342236
:10A5D000950700F19281D1F82C2210685479018CF2
:10A5E000012289B2A24092B221EA02010184018CC7
:10A5F00089B20A43042B02843FF4BAAE6B4991F846
:10A60000C022940700F18281D1F8B82210685479F1
:10A61000018C012289B2A24092B221EA0201018496
:10A62000018C89B20A43052B02843FF4A1AE5F4935
:10A6300091F84C23900700F17281D1F844231068FF
:10A640005479018C012289B2A24092B221EA02011E
:10A650000184018C89B20A43062B02843FF488AE40
:10A66000524991F8D823920700F16281D1F8D023A2
:10A6700010685479018C012289B2A24092B221EA79
:10A6800002010184018C89B20A43082B02847FF401
:10A690006FAE464A92F864349B0740F15281D2F87B
:10A6A0005C240423116850790A8C83409BB292B2D7
:10A6B00022EA03020A840A8C92B213430B8457E6FF
:10A6C000B38B23F008031B041B0C43F00803B38374
:10A6D000DAE6338B23F400631B041B0C43F40063A2
:10A6E0003383D1E6338B23F008031B041B0C43F0A8
:10A6F00008033383C8E6338B23F400631B041B0C6D
:10A7000033839AE6338B23F008031B041B0C33833B
:10A7100093E6B38B23F008031B041B0CB3838CE676
:10A720006B6834F8542C1FFA83F8B389C8F1160803
:10A730009BB223EA0203B8F1070FB3817FF65AAE4A
:10A74000DBF8F0370133CBF8F037A36A05939E4668
:10A7500000225EF804CB0121914660461DE0DEF840
:10A7600000C0B9F1140FACEB000321DC13F10800B9
:10A7700048BF03F11700031109EB2019604603F1EC
:10A78000FF3C013102FA03F3012202FA0CF2884580
:10A7900042EA03020EF1040E0AD38845DFD8C9F15C
:10A7A0001503DEF800004FF01509E8E7F80D00206A
:10A7B000B9F1150F5CD16848C2F38423C2F3441188
:10A7C00000EB830300EB8101D3F85431D1F854112D
:10A7D0001B0243EA011302F01F0100EB8101C2F3E7
:10A7E000C43200EB8202D1F85411D2F854210B4349
:10A7F00043EA023383EA132282EA121202F00F02C2
:10A800000F2A35D1C3F30F134FF6FF7293422FD0A7
:10A81000B3F5606F58D0029A93810198049990F82B
:10A8200058208A4210D0009A91680268521A009902
:10A830000260096B4268521A0099426000228A60E5
:10A840000A63049980F85810019900980A68013247
:10A850000A608268013282604FF6FF7293427FF491
:10A86000C9AD4B6801334B60036B01330363C1E532
:10A87000DBF8EC370133CBF8EC376FB14FF6FF73F1
:10A88000CBE7364AD2F8882010685479018C04222C
:10A89000A24089B292B25CE605993148582250F044
:10A8A0008FFEDAF800604FF6FF73B6E7002420460B
:10A8B00007B0BDE8F08F294AD2F814211068547906
:10A8C000018C042289B25BE6244991F8E12402EB71
:10A8D000420201EBC2023A4492F8F1240D2A9AD1C5
:10A8E000029980228A7798E71C4AD2F8A021106842
:10A8F0005479018C042289B25BE6184AD2F82C22E2
:10A9000010685479018C042289B26BE6134AD2F89C
:10A91000B82210685479018C042289B27BE60F4A70
:10A92000D2F8442310685479018C042289B28BE652
:10A930000A4AD2F8D02310685479018C042289B2D3
:10A940009BE6064BD3F85C240123ABE601228BF88F
:10A95000EE28CBF828390CE52CB70508F80D0020B7
:10A9600098080010F8B590F871301C09013C052CCE
:10A970000FD81B4E06EB44020546B2F8D40103F093
:10A980000F0340FA03F2D20703D595F87C70012F2C
:10A9900001D00120F8BD07FA03F3013B184034440D
:10A9A0004EF06AFB94F8E0210E4C104454F830202D
:10A9B00004EBC0041069A3881840EBD0EB6E0022B2
:10A9C00085F87C2093F82120204602210EF0A4FF78
:10A9D0002A6E93899BB243F0080338469381F8BDF1
:10A9E0002CB705081415002038B500224E21054665
:10A9F0000EF0BAF81524962012F0BCFCF52128467A
:10AA00000EF01AF9422807D0472807D0013C14F06D
:10AA1000FF04F0D1204638BD0C24FBE70D24F9E7F4
:10AA20002DE9F743064600F1100495480DF09EFF0E
:10AA3000B08296F8210144F23B33A6F84C31A0B322
:10AA40000709013F052F00F00F0000F2E480DFF856
:10AA5000488208EB4703B3F8D42142FA00F515F019
:10AA600001050FD0012303FA00F0013810404744DC
:10AA70004EF002FB97F8E031824D184405EBC0051B
:10AA80002623EB803146804B41F80C3F28464CF0A2
:10AA9000D7FC55B1AB88B3FA83F24FF00043D340F3
:10AAA00003D07A490A6813430B6042F21F53A6F899
:10AAB0004C310022762120460EF056F800224E211D
:10AAC00020460EF051F896F8D890714BB9F10C0F62
:10AAD00093F81D3A40F0A180022B00F0BA80042BBD
:10AAE00000F0BD80012B15BF062504254FF4DC774F
:10AAF0004FF4C06714BF4FF015084FF0270801222C
:10AB0000762120460EF030F842460C2120460EF009
:10AB10002BF8FAB20D2120460EF026F82A0142EA5F
:10AB200017220E2120460EF01FF8B9F10C0F0CBFB2
:10AB30004FF00B084FF003084FF002024FF0760180
:10AB400020460BBF08250C257A2709270EF00CF8A4
:10AB50004FEA4802032120460EF006F83A46042147
:10AB600020460EF001F82A01052120460DF0FCFFD9
:10AB70000022762120460DF0F7FFFF2252212046C9
:10AB80000DF0F2FF0322142120460DF0EDFF00220C
:10AB9000632120460DF0E8FF0822652120460DF0D4
:10ABA000E3FFE42120460EF047F800F0EF0040F00C
:10ABB0006002642120460DF0D7FF0F224E2120466F
:10ABC0000DF0D2FF012012F0D5FB96F8DB30002B00
:10ABD00050D096F82031013343F00103B3FA83F3E8
:10ABE000C3F11F03032B45DC2A4AD25C02F00F029B
:10ABF0004F21204601920DF0B7FF0F2012F0BAFB53
:10AC00002046019A50210DF0AFFF0F2003B0BDE8A0
:10AC1000F04312F0AFBB002534E7013B032B08D80B
:10AC2000DFE803F002220C12082590274FF00C08F1
:10AC300065E70A2524274FF0060860E704254FF44E
:10AC4000AC674FF025085AE70C2509274FF0030899
:10AC500055E703254FF478674FF03F084FE7082585
:10AC60007A274FF00B084AE706254FF4DC774FF0C0
:10AC7000150844E7002386F8DB300622B6E700BF5C
:10AC800000366E0114150020698C0008003C01405C
:10AC9000F80D0020580D06082CB7050838B590F8B7
:10ACA0002820012A04464FF0000307D0427F5AB102
:10ACB00003F00100607780F0010038BD406A02684F
:10ACC000117B69B9637F0BB9012038BD094D0A4971
:10ACD000022305F524620DF01FFF95F8413AE7E7DE
:10ACE000516A19B1884201D0002038BD136A002B87
:10ACF000E8D0F9E7F80D00207402002038B590F88C
:10AD00002810427F012904461DD022BB012038BDF6
:10AD1000596A09B1884217D11B6AABB9002AF5D02C
:10AD20000E4D0F49022305F524620DF0F5FE95F84E
:10AD3000413A03F0010363771A46002BE6D094F8FA
:10AD400028100129F7D1606A0368197B0029DFD137
:10AD5000002ADBD0E4E70023EBE700BFF80D00207A
:10AD600074020020F0B511F0010583B00AD190F80B
:10AD70002860012E044607D0C368B3F1807F01D953
:10AD80000123237703B0F0BD0A4B476AD3F8F405DB
:10AD90000DF0ECFDE368B880B3F1807FF2D9B72104
:10ADA0008DF80410267733462A46384601A90DF05F
:10ADB000B3FEE7E7F80D00202DE9F047089F88462D
:10ADC00015460021202204461E4650F007FC4FB1D4
:10ADD0003B68E3811B0C23827B687A89E3821B0C2E
:10ADE0006282238340464DF029FCEB0619D4431EB2
:10ADF000B8B108EB000701E0013B12D317F801CD11
:10AE0000BCF12E0FF8D1C01A421E032AA8BF03229C
:10AE1000082B03F1010AA8BF08239146C2441A4631
:10AE200006E008280246C246A8BF08224FF00009E3
:10AE30004FF0203341462360636004F10807204649
:10AE400050F0BEFB174B23815146BB704A46384633
:10AE500050F0B6FB611EE31D11F801CFACF1610E9D
:10AE6000BEF1190F9CBFACF1200C81F800C08B42E1
:10AE7000F2D1384604F10B0110F8013BA3F1610255
:10AE8000192A9CBF203B00F8013C8842F4D11823CA
:10AE90002373330CA382E572099B6683E361BDE8EB
:10AEA000F08700BF2020200008B542F099FD1B204C
:10AEB0000EF0C6FF08B12923C3804CF03FFB08B158
:10AEC0002923C380094B93F8492A012A01D0012084
:10AED00008BD0748C3F84C0A00F120014C304AF085
:10AEE0000FFE044B002083F8230008BDF80D00205E
:10AEF0007802002000ED00E00A4608B5054920B9B7
:10AF0000054842F09BF9034808BD044842F096F911
:10AF1000004808BD48180020080C0608300C060838
:10AF200010B5044C04480A46214642F087F92046F1
:10AF300010BD00BF48180020580C060810B5044C7E
:10AF400004480A46214642F079F9204610BD00BF68
:10AF5000481800206C0C060810B5044C04480A463A
:10AF6000214642F06BF9204610BD00BF4818002072
:10AF7000780C06082DE9F04FDFF88894D9F894058D
:10AF8000C9F8980587B0002B00F0DA8001F5FE784B
:10AF90001344DFF874B40393164601F12007C24648
:10AFA00021E0002E64D0D9F8C435B34200F0CC8043
:10AFB000D9F8C035B34200F0FF80D9F8C835D9F8C8
:10AFC000CC15B3424BD8B14200F29981711A204698
:10AFD0004AF044FD039B01369E4207F500770AF5CF
:10AFE000007A00F0AD80D9F8D055B542A7F1200421
:10AFF000D7D8751BD9F8E08505F00702EB08049255
:10B00000D8F830200233934203D3D8F83820934243
:10B010000BD94146184605934AF0F0FC059B804643
:10B02000002800F08C81C9F8E00598F80420002A77
:10B0300040F03481D8F82850002D00F07981D8F8FC
:10B0400030209B1A049A02EBC303D8F80C20204648
:10B0500002EB43224FF400714346A847BAE7B142DE
:10B06000B4D920464FF40072002150F0B7FAB1E78E
:10B070004FF400723146204650F0B0FA802387F832
:10B080009E310C2387F8A231D9F8C035D44AD9F8BB
:10B09000B815C4F8C6319342C4F8CA1100F334811C
:10B0A000D04AD14C82FB03021A44D817C0EB62127B
:10B0B00084FB0254CD4D85FB03C5C0EB2530C2EBAC
:10B0C000821587F8A1015B1B801020F03F0001333F
:10B0D0000343144487F8A031D317C3EBE41422448C
:10B0E000BF4B87F89F214A1E9A4200F31981BD4B3E
:10B0F000BD4883FB02311144D317C3EB611180FBC0
:10B100000140BA4C84FB0254C3EB2433C1EB8114DD
:10B1100087F8A531121B9B1023F03F030132134324
:10B12000084487F8A431CB17C3EBE010014487F83B
:10B13000A311552387F8DE31AA2387F8DF3149E7C9
:10B14000002007B0BDE8F08F4FF0FF3384F8EC31FA
:10B1500084F8ED3184F8EE3184F8EF31D9F8D83540
:10B16000C4F8E8315223237063706123A37084F81C
:10B17000E73141230025E37084F8E631722384F837
:10B18000E43184F8E5314FF4F0722946A7F11C0050
:10B1900050F024FA5523C7F8D051C7F8D451C7F856
:10B1A000D85184F8FE316FF0550384F8FC5184F8CF
:10B1B000FD5184F8FF310DE700214FF40072204665
:10B1C00050F00CFA8A4A03CA47F81D0CEB2007F826
:10B1D000200C582007F81F0C902047F8191C07F87E
:10B1E0001E0C002302220821F820E372227307F8C4
:10B1F000131CA273E37307F8102C07F80B0CD9F893
:10B20000C00584F82C20D9F8B8256376121A22627A
:10B21000D9F8C805D9F8CC25E376121A3F20207654
:10B220004FF0FF30A0763E20207701206377A37790
:10B23000E37784F82D3084F82E3084F82F30626262
:10B2400084F8300084F8313087F82610802187F8A0
:10B250002010292187F82210942187F823100E212D
:10B2600087F824100D21634A87F82510552187F8A7
:10B27000DE11AA2187F8DF1103CA5F4BC7F8270048
:10B28000C7F82B1003CB1388A7F82F309378C7F893
:10B290003200C7F8361087F831309BE64FF4007261
:10B2A0000021204650F09AF9049B002B4ED1D8F88B
:10B2B0004030002B00F0AA80049AD8F830304F4973
:10B2C000CDE9002220461122FFF776FDD8F8403064
:10B2D0001A6C002A00F0AD80049A1B6BCDE90022A5
:10B2E000474911223846FFF767FDD8F8448007F137
:10B2F00020044FF4E075B8F1000F3FD16AE6F11A6F
:10B3000020464AF0ABFB65E6FF2387F89F3187F8BC
:10B31000A13187F8A031324B4A1E9A427FF7E7AE3F
:10B32000FF2387F8A33187F8A53187F8A43100E718
:10B33000294620464FF4007250F050F94AE6A7F132
:10B34000240343F804BF9A45FBD143E6D8F84030C4
:10B35000049AD8F84480002B0CBF01230223C3EBCE
:10B3600002154346002B3FF435AE013D9B6CF9D1ED
:10B3700098464FF40075002B3FF42CAE2544203442
:10B38000234620354446049698460EE05CF81C1B84
:10B39000236BCDF800C000260196FFF70DFDA46CCD
:10B3A00008F12008CCB1A84517D02379A44604F1B0
:10B3B0001C0E1122A8F12000002BE7D1627926692A
:10B3C000236B216842F02102CDE900E6FFF7F4FC8F
:10B3D000A46C08F12008002CE5D1049EFAE500BF1A
:10B3E000FF03FB00832008828180808097554541C0
:10B3F000900C06089C0C0608A80C0608880C060889
:10B400008C0C0608F80D0020DEADBEEF049BD9F8C9
:10B41000BC15CDE9003320460822FFF7CDFCD8F853
:10B420004480B8F1000F3FF4D5AD3C464FF4F075C1
:10B43000A4E7049BCDE9003352E700BF144B154944
:10B4400010B5044618681B79206284F82430152250
:10B4500004F1250050F057F90F4B93F84F2B4FF0A4
:10B46000010E84F83AE012B984F83B2010BD03F5D0
:10B47000356CBCE80F0020606160A260E360BCE84E
:10B480000F0084F83BE020616161A261E36110BDBF
:10B49000B40C0608BC0C0608F80D002010B50021FD
:10B4A0003822044650F09AF80B490C4A0C48C4E97B
:10B4B00004120C490C4AA262C4E90601012341F6B8
:10B4C0001E6CA373A4F826C084F8213021460748D7
:10B4D000BDE8104035F026BC6400DC051A046C079A
:10B4E0000019750343080E001E7D0101CC0C0608EF
:10B4F000BDEEC07AF0EE407A17EE103A2033402BC2
:10B500004DD89FED287AB4EEC70AF1EE10FA08DDA7
:10B51000DFED256A77EEE67AF4EEC77AF1EE10FAFF
:10B52000F8DC9FED227AF4EEC77AF1EE10FA08D536
:10B53000DFED1D6A77EEA67AF4EEC77AF1EE10FA27
:10B54000F8D49FED1B7AF4EEC77AF1EE10FA21DC05
:10B55000DFED186AF4EEE67AF1EE10FA44BF77EE0A
:10B56000877A76EEE77A27EEA77ADFED136ADFEDCA
:10B57000135A9FED136AE7EE265ADFED126AA7EE23
:10B58000256A27EE875AE7EE066AE5EE267AB0EEE0
:10B59000670A704777EEC77A77EE677AE3E74EF08F
:10B5A0009BBD00BFDB0F4940DB0FC940DB0F49C02B
:10B5B000DB0FC93FDB0FC9BF0000000092E741B9B4
:10B5C0009730083C15A82ABEBFF34F8F0549064B9C
:10B5D000CA6802F4E0621343CB60BFF34F8F00BF31
:10B5E000FDE700BF00ED00E00400FA0508B500210A
:10B5F000032041F0C5F972B6FFF7E6FF08B5184C15
:10B60000D4F8702B94F8760B4AB1116893880969C5
:10B610000B40F8B9003B18BF0123002BF4D11420D4
:10B6200011F0A8FE00BFD4F8703B63B11A689B8884
:10B63000116994F8762B0B4042B9003B18BF0123E7
:10B640000BB1FFF7D3FFFDF7DBF8EBE7B3FA83F3BA
:10B650005B09F5E7B3FA83F35B09002BD4D1DEE78E
:10B66000F80D00201648174A174938B5174C184DE1
:10B67000121A4FF0A5FFD4F88820164B164842F452
:10B680007002C4F888201A68002142F001021A6092
:10B6900099601A6822F0847222F480321A6058602D
:10B6A0001A6822F480221A600C4AD960521B28467C
:10B6B0000B494FF085FFA560BDE83840FCF7A0BC02
:10B6C0000000001004000010778F060800ED00E075
:10B6D00000000020003802401030002488010020C3
:10B6E000000000082DE9F041CB781BB90025284661
:10B6F000BDE8F08100F110080C4607468978404605
:10B700000DF06AF905460028F0D0E0780EF098FBBD
:10B71000B86123780133DBB210B1C3712223837186
:10B7200009210DF075FDB869144E0DF04FF9D6F8EA
:10B730009435632BFBD912480DF018F9B8824046B6
:10B74000FFF752F9804620B9E0780EF0D9FB454664
:10B75000CDE73B6987F8D8001B78012B07D0022B77
:10B76000C5D196F8783B013386F8783BBFE796F869
:10B77000793B013386F8793BB9E700BFF80D00202B
:10B7800040420F0043680B4A23F0407323F4807358
:10B7900043F48073436083681A4042F0020282607F
:10B7A000C36A0139CAB223F4700141EA0251C1628D
:10B7B000704700BFFDF7FFC0704700BF0020FCF7D7
:10B7C00077BC00BF0120FCF773BC00BF0220FCF770
:10B7D0006FBC00BF431C00F038812DE9F04FDFF84B
:10B7E00098A300EB80030AEBC30287B0D2F8048071
:10B7F000810005460191DB00B8F1000F04D0D46848
:10B80000002C4CD0A17911B107B0BDE8F08FD2F86F
:10B810001090B9F1000F00F0478199F80620002A36
:10B82000F2D118330AF10406F018D8F80470F25077
:10B83000691CC0E901221523C260C9B2A371162395
:10B84000E17189F8063089F8071098F818004BF074
:10B85000DBFABB88A28823F440731B041B0CBB805B
:10B8600023681A83D9F80030B9F804201A8311210B
:10B8700020460DF0CDFC112148460DF0C9FC0926EB
:10B880004FF0330B24B12268A188106901422DD1F9
:10B89000BBF1010B00F0D3804BF076FDF2E7D2F85C
:10B8A0001090B9F1000F00F0E88099F80620002A06
:10B8B000AAD118330AF10401CA18D8F80470CC5080
:10B8C000C2E901441623D46089F806306B1C89F85C
:10B8D000073098F818004BF097FABB8823F44073B0
:10B8E0001B041B0CBB80BDE72268A18851834BF071
:10B8F000EFFC2368A2881A834BF0EAFC013EBFD11B
:10B90000002C00F0EF802368A2885A834BF0E0FC03
:10B91000B9F1000F00F00B81D9F80030B9F804201C
:10B920005A834BF0D5FC2368A2881A834BF0D0FCD5
:10B93000D9F80030B9F804201A83019B20465C191D
:10B940000AEBC404A37D227D002B14BF32211221F7
:10B950000CF022FEA37D627D002B14BF3221122148
:10B9600048460CF019FE7E4B9F4200F0CA807D4B8A
:10B970009F4200F0D1807C4B9F4200F0E080019B11
:10B980002B440AEBC30A4FF47A73BAF8184003FB4E
:10B9900004F4BB8823F440731B041B0CBB803B885E
:10B9A0009BB243F001033B80BD8802A841F08AF9B5
:10B9B00025F03F0504986D4B2D04A3FB00232D0CAF
:10B9C00045EA9345BD803A8822F001021204120C28
:10B9D0003A80674A990C94420B4637DC6200B0FB10
:10B9E000F2F292B20133042A38BF04223B84BA83B4
:10B9F0003B889BB243F001033B803B8823F4816387
:10BA000023F002031B041B0C4FF4804143F48063BA
:10BA10003B8039813B8823F080031B041B0C0022F0
:10BA20003B8098F81A0011464AF08EFA002298F8E6
:10BA30001900114607B0BDE8F04F4AF085BA002C56
:10BA40007FF452AF4BF044FC56E7704704EB4404DC
:10BA5000B0FBF4F082B2C0F30B0008B942F001026F
:10BA60004FF4967301FB03F34249A1FB03139B09B7
:10BA7000013342F400423B84B9E718330AF1040170
:10BA8000CA18D8F8047041F80390C2E90199C2F8C5
:10BA90000C9098F818004BF0B7F9BB8823F440736A
:10BAA0001B041B0CBB80E2E618330AF10401CA1820
:10BAB000D8F8047041F80390C2E901991523C2F83F
:10BAC0000C90A3716B1CE37198F818004BF09CF973
:10BAD000BB88A28823F440731B041B0CBB80236823
:10BAE0001A83C4E64BF0F4FBB9F1000F32D0D9F859
:10BAF0000030B9F804205A834BF0EAFB4BF0E8FB26
:10BB000016E703F5F2331A6A42F400121A621A6A4F
:10BB100022F400121A6232E703F5F0331A6A42F493
:10BB200080021A621A6A22F480021A6227E74BF036
:10BB3000CFFB2368A2881A834BF0CAFBFDE603F50E
:10BB4000EE331A6A42F400021A621A6A22F4000200
:10BB50001A6214E74BF0BCFB4BF0BAFBEDE600BFFA
:10BB60000054004000580040005C004083DE1B434E
:10BB7000A0860100D34D6210F80D002070B5284D4D
:10BB800000EB800305EBC30384B05A685468A28AB3
:10BB900092B20392039A12F4706F1CBF01221A77BB
:10BBA000039B13F4E06F4FEA80060CD1A38A304464
:10BBB00023F4706305EBC0051B041B0C0022A38259
:10BBC0006A7704B070BD238BA38823F480631B04C1
:10BBD0001B0CA380039B9A05E8D423889B05E5D41E
:10BBE0002388D9050FD52388DA05FCD423889BB296
:10BBF00043F40073238023889B05FCD40190FFF756
:10BC0000E9FD0198D2E723889BB243F400732380B7
:10BC1000A38823F440731B041B0CA380C6E700BF5A
:10BC2000F80D00200020A9E70120A7E70220A5E7E2
:10BC300010B404698269E468416814604024D460E7
:10BC4000446900230C31C2E90433C2E90633C2E976
:10BC50000833C2E90A33C2E90C339360936351603D
:10BC600084B1C269E0689363C2E90233C2E9043374
:10BC7000C2E90633C2E90833C2E90A33C2E90C3328
:10BC8000C2E900015DF8044B704700BF4368002221
:10BC90001A60037D1F2B08D9203B2022016802FA7D
:10BCA00003F343F01803CB6070472022016802FAC7
:10BCB00003F343F018038B60704700BF0268136AF8
:10BCC00011B1D96901B3143330B49C681D6891690E
:10BCD000DDB14FF4806088618D60104640690C6171
:10BCE00080B15968D369D9B10A464FF480619A602E
:10BCF0009961224312F0010F14BF00224FF4005249
:10BD00001A621C6130BC704770478D61064D4FF060
:10BD1000FF0C85F858C105F5AC7500688D60DDE74E
:10BD2000024A9A609961E4E78801002072190020B4
:10BD30000168F8B5D1E9042304465568002B49D0C1
:10BD40009861107D5E681F2831D81768202202FA9A
:10BD500000F040F01800B8601A7D1F2A32D9186828
:10BD6000203A202303FA02F242F01802C2600023B4
:10BD70002B6033603368896943F0100333602846D1
:10BD800041F084F823683046D96941F07FF82B6888
:10BD9000226843F001032B603368526843F00103CB
:10BDA000336093889BB243F003039380F8BD176818
:10BDB0002038202202FA00F040F01800F8601A7DC6
:10BDC0001F2ACCD81868202303FA02F242F0180286
:10BDD0008260CCE7137D90611F2B1CD81068202255
:10BDE00002FA03F343F01803836000232B602B68EF
:10BDF000896943F010032B60284641F047F82B680F
:10BE0000226843F0010352682B6093889BB243F091
:10BE100002039380F8BD1068203B202202FA03F34E
:10BE200043F01803C360E0E72DE9F843DFF8009220
:10BE30007D4F0646356896F888806B68B088012289
:10BE400085F828201A8822F040021204120C1A8069
:10BE50002A89824223D0198821F0380109044B45F0
:10BE60004FEA114100F0BC80704A934200F0B88064
:10BE70000246B2F5807FA8BF4FF48072022AB8BF95
:10BE80000222002A92FAA2F2B2FA82F208BF4FF01E
:10BE9000FF32013A41EAC20292B21A802881317B14
:10BEA000AA7A8A420CD01A8822F003021204120CD9
:10BEB0001A801A8892B2002900F08F801A80A97225
:10BEC0001A8892B242F040021A802A6A91680029C8
:10BED00000F0A0804FF0000C1432E64652F8100C2F
:10BEE0008E4400EA070120B1B1F1805F23D0696977
:10BEF00009B352F8140C143200EA070110B1B1F181
:10BF0000805F18D052F80C1C0CF1010C0029E5D10F
:10BF10002A7B82B1B8F1000F0DD0BCF1010F6CD8B3
:10BF2000BEF1070F69D80CEB8C0189002A6A114415
:10BF30000A7B002A61D02A6A9268002A52D0002225
:10BF40000AB1127B22B1B26812B1116892884A8399
:10BF50002A6A14682A6A51682A6A9268501E9AB13D
:10BF60002CB3224612F801CB14461A899207FCD54D
:10BF7000A3F80CC01A89D207FCD59A8992B209B1EC
:10BF800001F8012B0138EBD22B6A1B7BF3B92B6A2A
:10BF90001B6993B12B6AD6F894001B699847012856
:10BFA00008D0022809D100232B62BDE8F8834FF0A6
:10BFB000FF0CDAE72B6A143B2B622A6A2B6A1433D4
:10BFC0002B622B6A9B686BB16B68B9E7B368002B77
:10BFD000DDD01A689B881383D9E742F003026DE72E
:10BFE000420846E72B6A1B68DBB12B6AD3E9006283
:10BFF0002A620022C3E900221CE700213046FFF735
:10C000005DFEB36813B11A689B8853833046BDE860
:10C01000F8438DE62A7B002A8DD0B8F1000F85D138
:10C0200089E72B62C1E700BF0000FFFF003C004032
:10C03000003800400348D0F86C3113B100F5AE7001
:10C0400018477047880100200348D0F8903113B199
:10C0500000F5C07018477047880100200348D0F8E9
:10C06000B43113B100F5D270184770478801002031
:10C070000348D0F8D83113B100F5E4701847704781
:10C08000880100200348D0F8FC3113B100F5F670A8
:10C0900018477047880100200348D0F8203213B1B8
:10C0A00000F5047018477047880100200348D0F855
:10C0B000443213B100F50D70184770478801002015
:10C0C0000348D0F8683213B100F51670184770476E
:10C0D000880100200348D0F88C3213B100F51F709E
:10C0E00018477047880100200348D0F8B03213B1D8
:10C0F00000F5287018477047880100200348D0F8E1
:10C10000D43213B100F53170184770478801002010
:10C110000348D0F8F83213B100F53A701847704769
:10C12000880100200348D0F81C3313B100F5437098
:10C1300018477047880100200348D0F8403313B1F6
:10C1400000F54C7018477047880100200348D0F86C
:10C15000643313B100F5557018477047880100200B
:10C160000348D0F8883313B100F55E701847704764
:10C1700088010020094B0A4A013800EBC00003EB9C
:10C180008000116BD0F85C31064883420CBF4FF43D
:10C1900000134FF480030B431363704788010020A2
:10C1A000003802400060024070B501383C4C3D4D03
:10C1B00000EBC00C04EB8C0C9646DCF85C613A4A50
:10C1C000AE420CBF4FF400154FF48005166B35439B
:10C1D0001563CCF86C11CCF874313449DCF860315B
:10C1E0008B424FEAC0023ED001F580618B423AD0CB
:10C1F000A1F57A718B4247D001F580618B4243D023
:10C20000A1F57A718B4241D001F580618B423DD01E
:10C21000A1F57A718B4235D001F580618B4231D026
:10C22000A1F57A718B4233D001F580618B422FD01A
:10C23000A1F57A718B422DD001F580618B4229D016
:10C24000A1F57A718B4227D001F580618B4223D012
:10C25000A1F57A718B4221D0154D01F580618B4299
:10C2600018BF002500E0134D104404EB8003CEF30B
:10C270008711C3F87C5193F87101BDE8704000222A
:10C2800049F062BE0C4DEFE70C4DEDE70C4DEBE7CE
:10C290000C4DE9E70C4DE7E70C4DE5E7044DE3E70E
:10C2A0008801002000600240003802401060024017
:10C2B00000800028208000100080001800880010F6
:10C2C0000080201020800020008800200080202096
:10C2D0002DE9F04FA34BDFF8AC8293F88E3BA24FD1
:10C2E0008DB003F1FF39CDE901385FFA89F300938E
:10C2F0009E4B0025A3F5E666DFF88CB2DFF88CA232
:10C300005B46D3469A464FEA9A23A3F58013522BF5
:10C310004CD8334493F8E8310D2B47D8FC56019B99
:10C32000012B40F0FD80012C35D14FF0000949462A
:10C33000204611F031FD11F0CFFD037813B1542BDD
:10C3400040F0098109F104091FFA89F9B9F1100FC8
:10C35000EDD14FF0000E8DB3414600200CE0334488
:10C3600093F8E8310D2B0ED8FB56A3420ED00130C6
:10C37000A84201F580711EDA8A6813689B0AA3F54A
:10C380008013522BEBD90023A342F0D153799BF8B1
:10C3900005209A42EBD1754B9B454BD05BF820AF03
:10C3A0004FEA9A23A3F58013522BB2D9009B012B9D
:10C3B000F1D90024B9E7BEF1000FECD158460CF0DA
:10C3C0000DFEC3B2022B9BF805C000F26483431C30
:10C3D0005BB203EB43034FEA830E654B654903F5FC
:10C3E000727004E0834200F0568353F82C1F5145CD
:10C3F000F8D11A796245F5D153F80E40002CF1D0EE
:10C400005D4800234268A24203F1010300F08580E9
:10C41000102B00F12400F5D14FF0FF33574A03EB06
:10C42000C30302EB830393F87831002BB3D1029B53
:10C43000C3F808B0029B013503F58073042D029305
:10C440007FF45AAF4E4B03F29C524FF0010B009217
:10C45000A3F5816A1E46DAF8F0280BF1FF339A4201
:10C4600058DDF568002D00F012832968AB8801F1D2
:10C470003F4101F57E01B3FA83F3890AC3F11F0935
:10C48000DAF80400002840F38580002302E001333D
:10C4900083427DD01C0258F804208A42F7D14444DC
:10C4A000C6F80490B4615FFA8BF315B1EB71032306
:10C4B000AB71636CE16C4FEA490203209040034387
:10C4C0006364012303FA02F20A43E2649AF800204B
:10C4D0006AB3226D03FA09F31A43226515B12A687B
:10C4E000A9881183D4F8A00099B20122FBF790FF2C
:10C4F0002046FCF7E3F8009A01230BF1010B337798
:10C5000073775374BBF1090F02F1180306F120068B
:10C510000093A0D10DB0BDE8F08FDBB2013B7DE709
:10C52000022B7FF402AF082C3FF4FFAE33E7226DFD
:10C5300009F110018B401343236515B12B68AA88BC
:10C540005A83012101FA09F1D4F8A00089B200222E
:10C55000FBF75EFFCCE74FF0010E002D7FF4FCAE41
:10C5600019E700BFF80D0020600D06085CBE050845
:10C5700068B9050800000140E4020020880100209D
:10C580000C0400100C000010000401405CBD050804
:10C59000032B61DC0AEB0023020201921A6902926A
:10C5A000002A00F06D8299600131CAB2029C83F8C2
:10C5B0000521013003925422CAF8040083F80421B3
:10C5C00020460CF00BFDAC4994F805E091F8A3CBA4
:10C5D000317C0491C3B2022B0746206800F25B82D3
:10C5E0007C1C64B204EB4404A44AA549A4000023C3
:10C5F00005E00133172B00F04E8252F82C1F8842C1
:10C60000F7D111797145F4D111590029F1D02C22BB
:10C6100007EB470702FB03F39A4A03EB8703134434
:10C62000994FD3F84C22019B5344C3E906123C4670
:10C630000022636899421FD00132102A04F12404B9
:10C64000F7D1924B93F8542152B9542283F85421D4
:10C65000039A83F8552103E0874A032382F8A23B1B
:10C660008B498C4A8C4BCAF88C19CAF88429CAF8B1
:10C6700094390DB0BDE8F08F531CDBB2834A013B07
:10C6800003EBC30302EB830393F878210592002A9E
:10C69000E6D10199039A83F87921CA117F4C02EB04
:10C6A000212202EB021204EB8202542483F8784127
:10C6B0000B460C128C21534401FB04F4784901EB26
:10C6C00044042968C3F8A8208C22C3E93C423322E1
:10C6D000D960C3F8AC20019B08EB0304714B98426E
:10C6E00018D0674B984215D003F58043984211D07B
:10C6F00003F5806398420DD003F58063984209D01A
:10C700005D4B1968BCF1060F4FEA510107D1664A2B
:10C71000664B0FE0584BBCF1060F1968F7D0BCF11F
:10C72000070F634BDFF8A8C1624A08BF1A46624B85
:10C7300008BF6346B1FBF3F3013BB1FBF2F299B2E0
:10C74000531E019A5244A2F8B0300023A2F8681098
:10C750004B4A6365A4F85C300388A16590429BB2A4
:10C7600012D002F5806290420ED0B0F1804F0BD013
:10C77000A2F58032904207D002F58062904203D049
:10C7800002F58062904202D123F070039BB24B4AC3
:10C79000904200F04F8102F58062904200F04A81A1
:10C7A00023F440739BB203800023C1620385344BA2
:10C7B000984240F0488194F85E30038601238382DA
:10C7C00003883F4A9BB243F08003038003880792AB
:10C7D00023F001030022ADF820204FF00A0C0222C2
:10C7E0001B04CDE909C21B0C4FF480720B927146F9
:10C7F000038007AA11F0D2FE029B1879002840F0AE
:10C800002781019B0AEB030200231069D2F818C0AC
:10C8100001680A8892B242F001020A807A6894455F
:10C8200003F1010300F00B81102B07F12407F5D170
:10C830004FF0FF33154A234F03EBC30302EB83038F
:10C84000214AD3F85C31BB420CBF4FF400134FF4C4
:10C850008003176B3B43136343791C480C2B9BBF2E
:10C86000084A02EB43030027B3F85077019B534477
:10C870009F82002335E000BFF80D002068B905084D
:10C88000000001402CB70508E402002088010020C8
:10C89000D9620108D5620108E16201089C190020F3
:10C8A000CC1C002000040140882A1100A0BB0D0010
:10C8B0001055220044950800D0DD0600001000400D
:10C8C000600001000060024000380240FC080010D7
:10C8D00040771B00914200F0D8800133042B00F018
:10C8E000DD8050F83320002AF4D1DAF8F428013240
:10C8F000CAF8F4280AEBC302DB00C2F8F8180344B4
:10C9000068499A88059817439F80019B0AEB0307A3
:10C9100090222346FFF748FCB8690268002342F0E2
:10C9200010020260C4E92533A367C4F88830C4F854
:10C930009C30FA6962664FF48062E2674FF400311E
:10C940000422C4E9231240212167D7F8AC106167A3
:10C95000F968019B1831A1664FF48051C4F880102A
:10C96000D7F8A820E26603F164014FF48042414405
:10C97000C4F8842040F08AFAB869019BD0F800E03E
:10C98000C4F81CE0D0F814E0C4F820E0D0F804E0CB
:10C99000C4F824E003F1AC01D0F808E0C4F828E0C2
:10C9A0000023D0F80CE0C4F82CE0C4E93733C4F815
:10C9B000B830C4F8C030C4F8D030C4F8E430042231
:10C9C0004FF4403CFB69C4F8AC30C4E935C24FF4C5
:10C9D0008063C4F8C430D7F8F430C4F8BC30FB68C6
:10C9E0001033C4F8B0304FF40063C4F8C830D7F83F
:10C9F000F030C4F8B4304FF480434144C4F8CC3034
:10CA000040F044FAB9690A6822634A6962634A6875
:10CA1000A2638A68E263CA6822640A6842F010026C
:10CA20000A60049A32745FFA8BF3C6F80490F560DA
:10CA3000B4613BE503800023C1620385BEE6DBB23F
:10CA40000593013BF6E6184B98423FF4B4AEB5E6C9
:10CA50000DF0F6F9039038B1029B02211A7A0CF01E
:10CA60005BFF039B5422DA80029B1A68B2F84430C1
:10CA70006FEA43436FEA53439BB2A2F84430C0E6E7
:10CA80000A4A022382F8A23BEAE5DB0037E74FF0CF
:10CA9000FF394946F4E400235B68FFDE00239B88EE
:10CAA000FFDE00BF5984000800040140F80D00209B
:10CAB000084B10B5D3F83C3218440C46007E0DF0FC
:10CAC000BFF918B1036882880CB11A8310BD5A836C
:10CAD000FCE700BFF01E00200B4B10B5D3F83C3232
:10CAE00003440446187E0DF0ABF958B12E22827132
:10CAF000621CC27101210CF08BFB20460021BDE8B5
:10CB00001040D5E710BD00BFF01E00202DE9F04F0A
:10CB10008DB00E469DF858400194039305460028B9
:10CB200000F0D080DFF8D0C1077900230CF5107435
:10CB300002E0152B00F0C68003EB43010133605C7B
:10CB4000B842F6D161442F6891F9428295F805E028
:10CB50005FFA88F3022B00F2B58008F1010C4FFA5E
:10CB60008CFC0CEB4C0C604B4FEA8C0C002105E06C
:10CB70000131172903F12C0300F0A48018688742C3
:10CB8000F6D118797045F3D153F80C40002CEFD052
:10CB90002C2303FB01F108EB4808544BDFF85CB190
:10CBA00001EB88011944D1F84C3205939BF81C39EC
:10CBB0000093002B40F08B804D4FD7F86031A3429B
:10CBC00000F0E482D7F88431A34200F0D184D7F892
:10CBD000A831A34200F0CE84D7F8CC31A34200F0B4
:10CBE000CB84D7F8F0319C4200F0C884D7F81432D7
:10CBF0009C4200F06584D7F83832A34200F0C0842C
:10CC0000D7F85C329C4200F0BD84D7F880329C4259
:10CC100000F0BD84D7F8A4329C4200F0C484D7F859
:10CC2000C832A34200F0BD84D7F8EC32A34200F032
:10CC3000BC84D7F810339C4200F0C184D7F8343359
:10CC4000A34200F0C384D7F85833A34200F0BC8459
:10CC5000D7F87C33A34208BF0F2300F0988200234B
:10CC60004FF0FF3A0693009B002B49D00AEBCA0213
:10CC700007EB82024FEACA03079392F87831392B07
:10CC800000F02983D5F800804FEA9822A2F580129F
:10CC9000522A00F29C8215490A4492F8E8210D2A92
:10CCA00000F295821349895CCBB9079A524407EB8D
:10CCB000820282F87911392182F87811069A72B1CC
:10CCC000009333E0DFF834B09BF81C393BB1D5E971
:10CCD000054305931CB1012300936DE731B3002098
:10CCE0000DB0BDE8F08F00BF68B905082CB7050886
:10CCF00088010020600D0608F01E002004000010CE
:10CD00000AEBCA0307EB83034FEACA01079193F8C2
:10CD100078110029E3D1013283F87921032283F8C5
:10CD20007821069B002BDAD0D5F80080DFF86C93D1
:10CD30009BF8183906EB8602C2EBC20231B20B91A6
:10CD40009100089109F1800101EB82020992ABB3D5
:10CD5000D9F85C26904500F01784012B2ED0D9F825
:10CD60007426904500F01A84022B27D0D9F88C261F
:10CD7000904500F01C84032B20D0D9F8A42642450E
:10CD800000F01F84042B19D0D9F8BC26424500F0CE
:10CD90001F84052B12D0D9F8D426904500F01C84AE
:10CDA000062B0BD0D9F8EC26424500F01984072B4E
:10CDB00004D0D9F80427424500F0848303EB4302F2
:10CDC00009EBC2020293C2F85C865A1CD2B28BF8FD
:10CDD00018291346013B0299AB4A04938C2303FBA9
:10CDE000069301EB410102EBC10183F89160C3F8A6
:10CDF0008850C3F8041195F804C04FEA1C13013B96
:10CE0000052B0CF00F0C00F25183A0490A9301EBA3
:10CE10004300B0F8D4E14EFA0CF010F0010012D04B
:10CE2000012000FA0CFC0CF1FF3C0CEA0E004CF067
:10CE300023F996490A9B944A0B44C03293F8E03197
:10CE4000184402EBC000019A9BF8003002F0010187
:10CE5000013113B182F0010301938C2303FB06938C
:10CE6000490141F00A01C3F894102A7A0BF094FBAF
:10CE7000049B029A934200F07382039B063BDBB251
:10CE80000A93089A82496032531807EE903A8C232D
:10CE900006FB03F303F1680C0A468C4409EB03011B
:10CEA00000206033A1F8E400C1F8E800CCE90100FB
:10CEB0004FF0600C42F803C0019B13F0020208928D
:10CEC00000F07881DB0003F00803A1F8EE300423C2
:10CED000A1F8F200A1F8E4308C2303FB06930021B3
:10CEE000C3F8E8104FF00A0C68799BF81C19A3F8F6
:10CEF000F6C04FF0010CC3F8F8C04FF0020CA3F8D5
:10CF0000F400A3F8FCC0002900F0D081D3F804316C
:10CF10009C602368CDED017A23F001032360204655
:10CF20003FF01EFF009BDDED017A002B00F0AC818D
:10CF30008C2303FB06939BF81C090027C3E9267783
:10CF4000C3E92877C3E92A77C3E92C77C3E92E77A9
:10CF5000C3E93077C3E93277C3F8D070002800F016
:10CF60006F81039A2968082A029A01F14C00494905
:10CF700002EBC20ED3F8042101EB4E111161AA6934
:10CF8000C3F89820C3E927014FF04001C3F8A4106B
:10CF90004FF0040E4FF00301C3E93377C3E931E1E9
:10CFA0000CBF06211221C3F8AC70C3F8BC70C3F8E3
:10CFB000A8104FF480624FF48051C3E92C214FF444
:10CFC0008041C3F8B8104FF400310A9AC3F8C0107A
:10CFD0008C2303FB0693022AC3F8004100F2E5808C
:10CFE00003990829294901EB820108BF5F27D1F87D
:10CFF000DC072949B1FBF0F101F12301C3F8D81096
:10D0000018BF13278C2101FB06912046D1F804316B
:10D01000D1F888A09F80CDED037A0191DAF80070F5
:10D020003FF09EFE0199DDED037A002381F8D430B4
:10D030009AF805100C2914D8DFE811F0CB00130082
:10D0400013001300F400130013001300ED0013008D
:10D05000130013000D00BB8B23F400631B041B0C97
:10D06000BB8317EE902A384611F098FA9AF80530EB
:10D070000C2B1DD8DFE803F0C61C1C1CBD1C1C1C9F
:10D08000B41C1C1C140000BF541400202CB705084D
:10D09000780E00207021002000D01213F80D00201F
:10D0A000BB8B23F400631B041B0C43F40063BB83A2
:10D0B000099920688C2202FB069240234B62D2F829
:10D0C000A410D2F898300B43D2F8AC100B43D2F82E
:10D0D000B0100B43D2F8B4100B43D2F8B8100B4386
:10D0E000D2F8BC100B43D2F8C0100B43D2F8CC10CE
:10D0F0000B43D2F8D0100B43934901400B439BF8EC
:10D100001C092360D2E9313167690B4327F0070717
:10D110003B436361D2F8A8306360D2F89C30A360CF
:10D12000D2F8A030E360236843F01003236090B38B
:10D13000009B83B3B8F800309BB243F00103A8F81A
:10D140000030B8F82020089B697992B25BB30423C1
:10D150008B409BB222EA0302A8F82020B8F82020D6
:10D1600092B21343A8F82030029A049B934200F035
:10D17000D2809BF80030002B5BD18C2303FB0696FA
:10D18000012086F88F000DB0BDE8F08F0023591CF8
:10D1900006919A4667E592F8913006986B4990227D
:10D1A000FFF702F8C6E70123D2E78D21C3F8D810B4
:10D1B000132727E75B0003F00203A1F8EC300123FB
:10D1C000A1F8E2304FF48073A1F8F03084E600213A
:10D1D0006AE53B8B23F008031B041B0C3B8340E7F1
:10D1E000BB8B23F008031B041B0C43F00803BB8319
:10D1F0005EE73B8B23F400631B041B0C43F40063CA
:10D200003B8355E73B8B23F008031B041B0C43F0C7
:10D2100008033B834CE7BB8B23F008031B041B0C68
:10D22000BB831EE73B8B23F400631B041B0C3B8377
:10D2300017E72B686A7934334FF6FF7199509CE7F2
:10D24000059AC3F898200B9A4149C3F8D00002EB25
:10D25000820702EB470701EBC701C3F80811C3F8C7
:10D26000A010C3E932004021C3F8A4100421C3F880
:10D27000C41029686F79C3F8AC0034313944C3F85D
:10D280009C10C3F8BC0094E6079B324932485344D3
:10D2900007EB8307D7F85C3183420CBF4FF40013D0
:10D2A0004FF48003086B03430B6341E60C2800F244
:10D2B000FF802A4B03EB4000B0F85017C84300B280
:10D2C0008C2303FB0693A3F88C10D3F80431998ABE
:10D2D000084098821DE6D5F8008092F879114FEA4F
:10D2E0009822A2F58012522A3FF6F8AC1B4800EBB8
:10D2F000020C9CF8E8C1BCF10D0F40F2DC804FF04D
:10D30000000C61453FF412AD024492F8E8210D2A69
:10D310007FF6C8ACE3E4B8F800309BB243F080037A
:10D32000A8F80030B8F844306FEA43436FEA53433B
:10D330009BB2A8F84430B8F800309BB243F0010328
:10D34000A8F8003015E700BF3F801CF039A00008A6
:10D35000702A002000380240006002402CB7050807
:10D36000AD4B984500F04081B8F1804F00F040810E
:10D37000A3F57C43984500F0398103F58063984517
:10D3800000F03A8103F58063984500F0338103F59E
:10D390008063984500F0368103F58063984500F07E
:10D3A0002F8103F57043984500F0348103F57053E5
:10D3B000984500F02D8103F58063984500F02681A3
:10D3C00003F58063984500F01F81A3F598339845D5
:10D3D0007BD003F58063984500F0108103F58063EE
:10D3E000984508BF0D2371D0B8F8003023F0010331
:10D3F0001B041B0CA8F80030D9F800305B0807EEBE
:10D40000903A039B063BDAB2022AF8EE677A0A9258
:10D4100000F29980814BDFED826A03EB820303F215
:10D42000DC7292ED007AB8EE477A87EE870A30EE2A
:10D43000260A4CF005FE039B0138082B82B214BF6C
:10D4400013215F217448B8F8003080459BB26FD03B
:10D4500000F5806080456BD0B8F1804F68D0A0F5B2
:10D460008030804564D000F58060804560D000F554
:10D47000806080455CD06B48804572D000F580604C
:10D4800080456ED023F440739BB2A8F80030624B05
:10D49000C8F82C109845A8F8282040F08B8000236D
:10D4A000A8F830300123A8F81430EAE40020CAE4D8
:10D4B0004FF0FF3004E7DFF87CE11EF90CC020E7F5
:10D4C000052364E60722029284E40B23534A02EB0D
:10D4D000C303012193F8703703F01F025B09032B8C
:10D4E00001FA02F255D0042B26D14F490B6B13439E
:10D4F0000B63B8F8003023F001031B041B0CA8F8E1
:10D5000000304A4B984510D0A3F5806398450CD065
:10D5100003F58043984508D003F58063984504D00F
:10D5200003F5806398457FF467AFD9ED007A68E72B
:10D5300023F070039BB29EE7022BDAD13A494B6C81
:10D540001A434A64D5E7DFED3A6A9FED357A87EEF4
:10D55000A60A30EE070A4CF073FD013882B213219F
:10D5600070E7A8F80030C8F82C10A8F8282099E730
:10D5700001230CE602230AE6032308E6042306E659
:10D58000062304E6072302E60022029222E408238F
:10D59000FDE525490B6C1A430A64AAE701220292B1
:10D5A00018E40A23F3E50923F1E50B23EFE5022252
:10D5B00002920FE41D4B98453FF471AF72E70C23C4
:10D5C000E5E50322029205E40E23E0E50D23DEE506
:10D5D00004220292FFF7FEBB05220292FFF7FABB7C
:10D5E00006220292FFF7F6BB00236FE702236DE7E6
:10D5F00001236BE7042369E7032367E70C2365E74F
:10D60000062363E7052361E70A235FE709235DE754
:10D6100008235BE7072359E7000001402CB7050802
:10D620000AD7233C001000400038024000040140AB
:10D63000001B374A600D060838B5424C8C2303FBAB
:10D64000004393F88F3003B938BD94F8E0C494F8E0
:10D65000E1349C450ED003EB430204EBC20292F886
:10D66000E4E40EF1FF35012D4FEA430246D9BEF145
:10D67000030F3ED08C2202FB0042A2F88010EFF391
:10D680001181902383F31288B2F8805092F882308F
:10D6900043EA45030025C9B29BB282F8825081F368
:10D6A000118829491A090D7882EA13225A4005B1D6
:10D6B000D2431B019BB202F00F021A4391F81C39AE
:10D6C0005BBB8C2303FB0044D1F8643AD4F8080117
:10D6D00001219847D4F80411B4F88C508A8AD4F800
:10D6E00000312A438A8258601A6842F001021A60A7
:10D6F00038BD5D1C05F003056545BBD0134404EB44
:10D70000C303034493F8F1140029B3D08C2303FB23
:10D710000043012283F88220ACE78C2303FB004402
:10D72000D1F8645AD4F88830D4F804115B790869C8
:10D7300003F0FC0318440421A847D4F80431800006
:10D74000988138BDF80D00200400001030B5044663
:10D75000006EA268838923F400531B041B0C838191
:10D76000637995B013F0040F4FF00001019214BFDC
:10D770004FF480520A46ADF808201A031B0203F446
:10D780008063ADF80C302379ADF80E1002F400522E
:10D79000ADF80A20DA0744BF0422ADF80E209B073B
:10D7A000ADF8101005D5BDF80E3043F00803ADF804
:10D7B0000E3001A93FF0E0FC6279236ED50700F13D
:10D7C0008B8012F0080F9A8A48D092B242F0080279
:10D7D0009A829A8992B242F400529A812279D007B1
:10D7E00032D5E06B002800F089800023E26D0893B9
:10D7F000CDE90C33CDE91033CDE912334FF4807508
:10D800000A936369E1680E9506920793626C05922C
:10D810004FF480634FF480350B9309910F953FF0DF
:10D820009FFA05A9E06B3FF031FBE26B216E1368B4
:10D8300043F0010313608B8A9BB243F040038B8259
:10D84000536822799BB2636591070DD4226E938948
:10D850009BB243F40053938115B030BD22F008020F
:10D860001204120C9A82B4E7206C002852D023696B
:10D87000A26D0993A36CCDE90532402300254FF436
:10D88000803108934FF480630B930F91CDE90C55D1
:10D89000CDE91055CDE9125507950A950E953FF043
:10D8A0005FFA206C05A93FF0F1FA236C226E5869EB
:10D8B00040F080005861186840F0160018605D6004
:10D8C000938A9BB243F0800302F10C0193820B68B0
:10D8D00043F040030B60BAE71E498B4224D0A1F508
:10D8E0004C418B421ED001F580618B421ED102203B
:10D8F0000121FFF7DDF86279236E62E74FF6DF71F1
:10D900001980D96841F02001D960D96841F010012F
:10D91000D96099E7226ED36843F0800302F10C01CD
:10D92000D360D4E70120E3E70020E1E701F580615F
:10D930008B420AD001F580618B4208D001F5444149
